{
  "contractName": "CrowdFunding",
  "abi": [
    {
      "constant": true,
      "inputs": [
        {
          "internalType": "uint256",
          "name": "",
          "type": "uint256"
        }
      ],
      "name": "Fundings",
      "outputs": [
        {
          "internalType": "address payable",
          "name": "owner",
          "type": "address"
        },
        {
          "internalType": "uint256",
          "name": "fid",
          "type": "uint256"
        },
        {
          "internalType": "string",
          "name": "name",
          "type": "string"
        },
        {
          "internalType": "string",
          "name": "introduction",
          "type": "string"
        },
        {
          "internalType": "uint256",
          "name": "sum",
          "type": "uint256"
        },
        {
          "internalType": "uint256",
          "name": "time",
          "type": "uint256"
        },
        {
          "internalType": "uint256",
          "name": "status",
          "type": "uint256"
        },
        {
          "internalType": "uint256",
          "name": "already_sum",
          "type": "uint256"
        },
        {
          "internalType": "uint256",
          "name": "funder_num",
          "type": "uint256"
        }
      ],
      "payable": false,
      "stateMutability": "view",
      "type": "function"
    },
    {
      "constant": true,
      "inputs": [
        {
          "internalType": "uint256",
          "name": "",
          "type": "uint256"
        }
      ],
      "name": "Uses",
      "outputs": [
        {
          "internalType": "uint256",
          "name": "sum_agree",
          "type": "uint256"
        },
        {
          "internalType": "uint256",
          "name": "sum_disagree",
          "type": "uint256"
        },
        {
          "internalType": "uint256",
          "name": "vote_num",
          "type": "uint256"
        }
      ],
      "payable": false,
      "stateMutability": "view",
      "type": "function"
    },
    {
      "constant": true,
      "inputs": [],
      "name": "funding_num",
      "outputs": [
        {
          "internalType": "uint256",
          "name": "",
          "type": "uint256"
        }
      ],
      "payable": false,
      "stateMutability": "view",
      "type": "function"
    },
    {
      "constant": false,
      "inputs": [
        {
          "internalType": "string",
          "name": "name",
          "type": "string"
        },
        {
          "internalType": "string",
          "name": "introduction",
          "type": "string"
        },
        {
          "internalType": "address payable",
          "name": "owner",
          "type": "address"
        },
        {
          "internalType": "uint256",
          "name": "sum",
          "type": "uint256"
        },
        {
          "internalType": "uint256",
          "name": "time",
          "type": "uint256"
        }
      ],
      "name": "newFunding",
      "outputs": [],
      "payable": false,
      "stateMutability": "nonpayable",
      "type": "function"
    },
    {
      "constant": false,
      "inputs": [
        {
          "internalType": "uint256",
          "name": "fid",
          "type": "uint256"
        }
      ],
      "name": "contribute",
      "outputs": [],
      "payable": true,
      "stateMutability": "payable",
      "type": "function"
    },
    {
      "constant": false,
      "inputs": [
        {
          "internalType": "uint256",
          "name": "fid",
          "type": "uint256"
        }
      ],
      "name": "want_use",
      "outputs": [],
      "payable": false,
      "stateMutability": "nonpayable",
      "type": "function"
    },
    {
      "constant": false,
      "inputs": [
        {
          "internalType": "uint256",
          "name": "fid",
          "type": "uint256"
        },
        {
          "internalType": "bool",
          "name": "agree",
          "type": "bool"
        }
      ],
      "name": "agree_use",
      "outputs": [],
      "payable": false,
      "stateMutability": "nonpayable",
      "type": "function"
    },
    {
      "constant": true,
      "inputs": [
        {
          "internalType": "uint256",
          "name": "fid",
          "type": "uint256"
        }
      ],
      "name": "getInvestors",
      "outputs": [
        {
          "internalType": "address payable[]",
          "name": "",
          "type": "address[]"
        }
      ],
      "payable": false,
      "stateMutability": "view",
      "type": "function"
    }
  ],
  "bytecode": "0x608060405234801561001057600080fd5b50611250806100206000396000f3fe60806040526004361061007b5760003560e01c8063879f3b601161004e578063879f3b6014610315578063acd90fc114610492578063b5ecc572146104ef578063c1cbbca71461052a5761007b565b80631139de5514610080578063187f2c001461011057806364cfd7c7146102a3578063796f0ea9146102ce575b600080fd5b34801561008c57600080fd5b506100b9600480360360208110156100a357600080fd5b8101908080359060200190929190505050610558565b6040518080602001828103825283818151815260200191508051906020019060200280838360005b838110156100fc5780820151818401526020810190506100e1565b505050509050019250505060405180910390f35b34801561011c57600080fd5b506102a1600480360360a081101561013357600080fd5b810190808035906020019064010000000081111561015057600080fd5b82018360208201111561016257600080fd5b8035906020019184600183028401116401000000008311171561018457600080fd5b91908080601f016020809104026020016040519081016040528093929190818152602001838380828437600081840152601f19601f820116905080830192505050505050509192919290803590602001906401000000008111156101e757600080fd5b8201836020820111156101f957600080fd5b8035906020019184600183028401116401000000008311171561021b57600080fd5b91908080601f016020809104026020016040519081016040528093929190818152602001838380828437600081840152601f19601f820116905080830192505050505050509192919290803573ffffffffffffffffffffffffffffffffffffffff1690602001909291908035906020019092919080359060200190929190505050610608565b005b3480156102af57600080fd5b506102b861082e565b6040518082815260200191505060405180910390f35b3480156102da57600080fd5b50610313600480360360408110156102f157600080fd5b8101908080359060200190929190803515159060200190929190505050610834565b005b34801561032157600080fd5b5061034e6004803603602081101561033857600080fd5b8101908080359060200190929190505050610b66565b604051808a73ffffffffffffffffffffffffffffffffffffffff1673ffffffffffffffffffffffffffffffffffffffff168152602001898152602001806020018060200188815260200187815260200186815260200185815260200184815260200183810383528a818151815260200191508051906020019080838360005b838110156103e85780820151818401526020810190506103cd565b50505050905090810190601f1680156104155780820380516001836020036101000a031916815260200191505b50838103825289818151815260200191508051906020019080838360005b8381101561044e578082015181840152602081019050610433565b50505050905090810190601f16801561047b5780820380516001836020036101000a031916815260200191505b509b50505050505050505050505060405180910390f35b34801561049e57600080fd5b506104cb600480360360208110156104b557600080fd5b8101908080359060200190929190505050610d04565b60405180848152602001838152602001828152602001935050505060405180910390f35b3480156104fb57600080fd5b506105286004803603602081101561051257600080fd5b8101908080359060200190929190505050610d2e565b005b6105566004803603602081101561054057600080fd5b8101908080359060200190929190505050610dff565b005b606060006002600084815260200190815260200160002090506000816009019050808054806020026020016040519081016040528092919081815260200182805480156105fa57602002820191906000526020600020905b8160009054906101000a900473ffffffffffffffffffffffffffffffffffffffff1673ffffffffffffffffffffffffffffffffffffffff16815260200190600101908083116105b0575b505050505092505050919050565b60008060008154809291906001019190505590506060610626610fc4565b60405180608001604052806000815260200160008152602001600081526020018381525090508060016000858152602001908152602001600020600082015181600001556020820151816001015560408201518160020155606082015181600301908051906020019061069a929190610fec565b509050506060806106a9611039565b6040518061016001604052808a73ffffffffffffffffffffffffffffffffffffffff1681526020018781526020018c81526020018b8152602001898152602001888152602001600081526020016000815260200160008152602001848152602001838152509050806002600088815260200190815260200160002060008201518160000160006101000a81548173ffffffffffffffffffffffffffffffffffffffff021916908373ffffffffffffffffffffffffffffffffffffffff1602179055506020820151816001015560408201518160020190805190602001906107919291906110a9565b5060608201518160030190805190602001906107ae9291906110a9565b506080820151816004015560a0820151816005015560c0820151816006015560e0820151816007015561010082015181600801556101208201518160090190805190602001906107ff929190611129565b5061014082015181600a01908051906020019061081d929190610fec565b509050505050505050505050505050565b60005481565b6000600260008481526020019081526020016000209050600060016000858152602001908152602001600020905060005484108015610874575060008410155b61087d57600080fd5b600282600601541461088e57600080fd5b60008090505b8260080154811015610b5f578260090181815481106108af57fe5b9060005260206000200160009054906101000a900473ffffffffffffffffffffffffffffffffffffffff1673ffffffffffffffffffffffffffffffffffffffff163373ffffffffffffffffffffffffffffffffffffffff161415610b5257600082600301828154811061091e57fe5b90600052602060002001541415610b5157816002016000815480929190600101919050555060011515841515141561099f57600182600301828154811061096157fe5b906000526020600020018190555082600a01818154811061097e57fe5b906000526020600020015482600001600082825401925050819055506109ea565b60028260030182815481106109b057fe5b906000526020600020018190555082600a0181815481106109cd57fe5b906000526020600020015482600101600082825401925050819055505b60028360070154816109f857fe5b04826000015410610a73578260000160009054906101000a900473ffffffffffffffffffffffffffffffffffffffff1673ffffffffffffffffffffffffffffffffffffffff166108fc84600401549081150290604051600060405180830381858888f19350505050158015610a71573d6000803e3d6000fd5b505b6002836007015481610a8157fe5b04826001015410610b50576003836006018190555060008090505b8360080154811015610b4e57836009018181548110610ab757fe5b9060005260206000200160009054906101000a900473ffffffffffffffffffffffffffffffffffffffff1673ffffffffffffffffffffffffffffffffffffffff166108fc85600a018381548110610b0a57fe5b90600052602060002001549081150290604051600060405180830381858888f19350505050158015610b40573d6000803e3d6000fd5b508080600101915050610a9c565b505b5b5b8080600101915050610894565b5050505050565b60026020528060005260406000206000915090508060000160009054906101000a900473ffffffffffffffffffffffffffffffffffffffff1690806001015490806002018054600181600116156101000203166002900480601f016020809104026020016040519081016040528092919081815260200182805460018160011615610100020316600290048015610c3e5780601f10610c1357610100808354040283529160200191610c3e565b820191906000526020600020905b815481529060010190602001808311610c2157829003601f168201915b505050505090806003018054600181600116156101000203166002900480601f016020809104026020016040519081016040528092919081815260200182805460018160011615610100020316600290048015610cdc5780601f10610cb157610100808354040283529160200191610cdc565b820191906000526020600020905b815481529060010190602001808311610cbf57829003601f168201915b5050505050908060040154908060050154908060060154908060070154908060080154905089565b60016020528060005260406000206000915090508060000154908060010154908060020154905083565b3373ffffffffffffffffffffffffffffffffffffffff166002600083815260200190815260200160002060000160009054906101000a900473ffffffffffffffffffffffffffffffffffffffff1673ffffffffffffffffffffffffffffffffffffffff1614610d9c57600080fd5b60005481108015610dae575060008110155b610db757600080fd5b6001600260008381526020019081526020016000206006015414610dda57600080fd5b6000600260008381526020019081526020016000209050600281600601819055505050565b600034118015610e3d575060026000828152602001908152602001600020600701546002600083815260200190815260200160002060040154033411155b610e4657600080fd5b42600260008381526020019081526020016000206005015411610e6857600080fd5b6000600260008381526020019081526020016000206006015414610e8b57600080fd5b6000600260008381526020019081526020016000209050600060016000848152602001908152602001600020905080600301600090806001815401808255809150509060018203906000526020600020016000909192909190915055503482600701600082825401925050819055508160080160008154809291906001019190505550816009013390806001815401808255809150509060018203906000526020600020016000909192909190916101000a81548173ffffffffffffffffffffffffffffffffffffffff021916908373ffffffffffffffffffffffffffffffffffffffff1602179055505081600a01349080600181540180825580915050906001820390600052602060002001600090919290919091505550816004015482600701541415610fbf57600182600601819055505b505050565b6040518060800160405280600081526020016000815260200160008152602001606081525090565b828054828255906000526020600020908101928215611028579160200282015b8281111561102757825182559160200191906001019061100c565b5b50905061103591906111b3565b5090565b604051806101600160405280600073ffffffffffffffffffffffffffffffffffffffff168152602001600081526020016060815260200160608152602001600081526020016000815260200160008152602001600081526020016000815260200160608152602001606081525090565b828054600181600116156101000203166002900490600052602060002090601f016020900481019282601f106110ea57805160ff1916838001178555611118565b82800160010185558215611118579182015b828111156111175782518255916020019190600101906110fc565b5b50905061112591906111b3565b5090565b8280548282559060005260206000209081019282156111a2579160200282015b828111156111a15782518260006101000a81548173ffffffffffffffffffffffffffffffffffffffff021916908373ffffffffffffffffffffffffffffffffffffffff16021790555091602001919060010190611149565b5b5090506111af91906111d8565b5090565b6111d591905b808211156111d15760008160009055506001016111b9565b5090565b90565b61121891905b8082111561121457600081816101000a81549073ffffffffffffffffffffffffffffffffffffffff0219169055506001016111de565b5090565b9056fea265627a7a7231582077e79bd02282627de6982a59e75d998eb7afbf5a95882e853c3daa8aafd1d08164736f6c63430005100032",
  "source": "pragma solidity >=0.4.22 <0.9.0;\n\ncontract CrowdFunding {\n\n    uint public funding_num;             \n\n    // 使用请求，为求方便，这里规定请求都是拿出全部金钱，且一次失败后再也不能提取\n    struct Use {\n        uint   sum_agree;                   // 同意的总钱数\n        uint   sum_disagree;                // 不同意的总钱数\n        uint   vote_num;                    // 投票数量\n        uint[] agree;                       // 各个投资者投票结果\n\n    }\n    mapping (uint => Use) public Uses;\n\n    // 项目信息\n    struct Funding {\n        address payable owner;              // 发起者\n        uint fid;                           // 项目唯一id号\n\n        string name;                        // 项目名\n        string introduction;                // 项目描述\n        uint sum;                           // 目标金额\n        uint time;                          // 结束时间\n        uint status;                        // 项目状态\n                                            // 0代表正在众筹，1代表已经众筹完毕，2已经发出提取请求，3表示项目结束（失败或已经提取）\n\n        uint already_sum;                   // 收集到的金额\n        uint funder_num;                    // 投资人数\n                             \n        address payable[] funders;          // 投资者\n        uint[] amount;                      // 各个投资者对应的金额\n    }\n    mapping (uint => Funding) public Fundings; \n    \n\n    function newFunding(string memory name, string memory introduction, address payable owner, uint sum, uint time) public\n    {\n        uint id = funding_num++;\n\n        uint[] memory agree;\n        Use memory u =Use({\n            sum_agree: 0,\n            sum_disagree: 0,\n            vote_num: 0,\n            agree: agree\n        });\n        Uses[id]=u;\n\n        address payable[] memory funders;\n        uint[] memory amount;\n        Funding memory f = Funding({\n            fid:id,\n            name: name,\n            introduction: introduction,\n            owner: owner,\n            sum: sum,\n            time: time,\n            already_sum: 0,\n            funder_num: 0,\n            status: 0,\n            funders: funders,\n            amount: amount\n        });\n        Fundings[id] = f;\n    }\n\n    function contribute(uint fid) public payable {\n        // 捐钱数目必须符合要求\n        require(msg.value > 0 && msg.value <= Fundings[fid].sum - Fundings[fid].already_sum);\n        // 还没结束\n        require(Fundings[fid].time > block.timestamp);\n        require(Fundings[fid].status == 0);\n\n        Funding storage f = Fundings[fid];\n        Use storage u = Uses[fid];\n\n        //uses信息更新\n        u.agree.push(0);\n\n        //funding信息更新\n        f.already_sum += msg.value;\n        f.funder_num++;\n        f.funders.push(msg.sender);\n        f.amount.push(msg.value);\n        if(f.already_sum == f.sum)\n            f.status = 1;\n    }\n\n    function want_use(uint fid) public {\n        //判断条件\n        require(Fundings[fid].owner == msg.sender);\n        require(fid < funding_num && fid >= 0);\n        require(Fundings[fid].status == 1);\n        \n        Funding storage f = Fundings[fid];\n        f.status = 2; \n    }\n\n    function agree_use(uint fid, bool agree) public {\n        Funding storage f = Fundings[fid];\n        Use storage u = Uses[fid];\n\n        require(fid < funding_num && fid >= 0);\n        require(f.status == 2);\n\n        for(uint i = 0; i < f.funder_num; i++) \n        {\n            if(msg.sender == f.funders[i]) \n            {\n                if(u.agree[i] == 0) {\n                    u.vote_num++;\n                    if(agree == true) {\n                        u.agree[i] = 1;\n                        u.sum_agree += f.amount[i];\n                    }\n                    else \n                    {\n                        u.agree[i] = 2;\n                        u.sum_disagree +=f.amount[i];\n                    }\n                        \n\n                    if(u.sum_agree >= f.already_sum / 2) \n                        f.owner.transfer(f.sum);\n\n                    if(u.sum_disagree >= f.already_sum / 2) {\n                        f.status = 3;\n                        for (uint j = 0; j < f.funder_num; j++)\n                            f.funders[j].transfer(f.amount[j]);\n                    }\n                }\n            }\n        }\n    }\n\n    function getInvestors(uint fid) public view returns(address payable[] memory) {\n        Funding storage f = Fundings[fid];\n        address payable[] storage funders = f.funders;\n        return funders;\n    }\n}\n",
  "sourcePath": "D:/学习/大三上/区块链与数字货币/作业/大作业/dapp/contracts/CrowdFunding.sol",
  "compiler": {
    "name": "solc",
    "version": "0.5.16+commit.9c3226ce.Emscripten.clang"
  },
  "schemaVersion": "3.3.3",
  "updatedAt": "2021-01-13T09:22:02.226Z",
  "networkType": "ethereum",
  "devdoc": {
    "methods": {}
  },
  "userdoc": {
    "methods": {}
  }
}